:100000000C94270E0C944F0E0C944F0E0C944F0E24
:100010000C944F0E0C944F0E0C944F0E0C944F0EEC
:100020000C944F0E0C944F0E0C94771C0C94E61C01
:100030000C944F0E0C944F0E0C944F0E0C944F0ECC
:100040000C944F0E0C944F0E0C944F0E0C944F0EBC
:100050000C944F0E0C944F0E0C944F0E0C94181FD2
:100060000C944F0E0C944F0E0C944F0E0C944F0E9C
:100070000C944F0E0C944F0E0C944F0E0C944F0E8C
:100080000C94621F0C944F0E0C944F0E0C944F0E58
:100090000C944F0E0C944F0E0C944F0E0C944F0E6C
:1000A0000C944F0E0C944F0E0C944F0E08087E9932
:1000B00099E7E799997E08087EF9F9E7E79F9F7E1F
:1000C00008087E9F9FE7E7F9F97E08087EFFFF9FFB
:1000D0009FE7E77E08087EE7E7F9F9FFFF7E08085B
:1000E0007EE7C38181C3E77E08087EEFE7E3E3E7AD
:1000F000EF7E08087EE7C39999C3E77E08087EE78C
:10010000E7E7E7E7E77E08087EFFFF8181FFFF7EE4
:1001100008087EFFCFCFF3F3FF7E08087EFFF3F3DE
:10012000CFCFFF7E08087EC3C3FFFFC3C37E08088E
:100130007EFF99999999FF7E08087EFFCFC7E3F368
:10014000FF7E08087EFFF3E3C7CFFF7E08087EFF2F
:10015000C3C3C3C3FE7E08087EE7E78181E7E77E6D
:100160000C10000000000000804020202020000033
:100170000000000F0000000000000C1020202040B4
:10018000800000000000000000000000000F0000E0
:10019000000000000C1000000000000708102020E4
:1001A00020200000000000000000000000000C10F3
:1001B00020202010080700000000000000000000C0
:1001C00000000000000000000C100000000000FF14
:1001D00000000000000000000000000F0000000010
:1001E00000000C1020202020202020202020202073
:1001F0000000000000000000000000000708800070
:100200008000800208D4D205087F7F3E1C08412070
:10021000FE0105F1F1F111D1B1D111F1515151515D
:10022000515151515151515151510000FF00007F26
:100230007F09090F06007F7F19396F46007F7F49CC
:1002400049414100266F49497B3200266F49497B6D
:1002500032FF0000FFFFFFFEFFFEFF0279CD95A5F4
:10026000CD790111111101F9F901010000FF000020
:100270007F7F09090F06007F7F40404040007C7E61
:100280000B0B7E7C00070F78780F07000000000042
:100290000000FF00001F3F3F33333333333E363619
:1002A0003E363E363E36363E36363E360000FF009F
:1002B000003E7F41417F3E007F7F0E1C7F7F00001C
:1002C000000000000000000000000000000000002E
:1002D0000000003F4050404040784641415959415C
:1002E0004141415959414141414141414100007F12
:1002F000000001017F7F0101007C7E0B0B7E7C00F2
:100300007F7F09090F06007F7F49494141000000B6
:1003100000000000FFFFFFFFFFFFFFFFFFFFFFFFE9
:100320001F1F1F1F1F1F1F1F1F1F1F1F0000000059
:10033000003E5B4F5B3E3E6B4F6B3E1C3E7C3E1C6B
:10034000183C7E3C181C577D571C1C5E7F5E1C00B1
:10035000183C1800FFE7C3E7FF0018241800FFE768
:10036000DBE7FF30483A060E2629792926407F052B
:100370000507407F05253F5A3CE73C5A7F3E1C1C41
:1003800008081C1C3E7F14227F22145F5F005F5F01
:1003900006097F017F006689956A606060606094ED
:1003A000A2FFA29408047E040810207E20100808F2
:1003B0002A1C08081C2A08081E101010100C1E0CFD
:1003C0001E0C30383E3830060E3E0E06000000008F
:1003D0000000005F00000007000700147F147F1476
:1003E000242A7F2A122313086462364956205000BB
:1003F00008070300001C2241000041221C002A1CA7
:100400007F1C2A08083E0808008070300008080891
:100410000808000060600020100804023E514945B1
:100420003E00427F400072494949462141494D33CF
:100430001814127F1027454545393C4A4949314136
:10044000211109073649494936464949291E000004
:100450001400000040340000000814224114141459
:100460001414004122140802015909063E415D5945
:100470004E7C1211127C7F494949363E414141224E
:100480007F4141413E7F494949417F090909013E78
:10049000414151737F0808087F00417F410020409F
:1004A000413F017F081422417F404040407F021CB1
:1004B000027F7F0408107F3E4141413E7F090909C8
:1004C000063E4151215E7F09192946264949493294
:1004D00003017F01033F4040403F1F2040201F3F5A
:1004E0004038403F631408146303047804036159DF
:1004F000494D43007F414141020408102000414121
:10050000417F0402010204404040404000030708CC
:100510000020545478407F284444383844444428C8
:10052000384444287F385454541800087E0902186F
:10053000A4A49C787F0804047800447D40002040F7
:10054000403D007F1028440000417F40007C04783B
:1005500004787C080404783844444438FC18242483
:100560001818242418FC7C08040408485454542403
:1005700004043F44243C4040207C1C2040201C3C80
:100580004030403C44281028444C9090907C446477
:10059000544C44000836410000007700000041360A
:1005A000080002010204023C2623263C1EA1A16190
:1005B000123A4040207A38545455592155557941C2
:1005C0002154547841215554784020545579400C99
:1005D0001E5272123955555559395454545939557A
:1005E0005454580000457C410002457D42000145BD
:1005F0007C40F0292429F0F0282528F07C5455452A
:10060000002054547C547C0A097F493249494932BC
:100610003248484832324A4848303A4141217A3AD1
:1006200042402078009DA0A07D39444444393D409B
:1006300040403D3C24FF2424487E4943662B2FFC48
:100640002F2BFF0929F620C0887E090320545479F6
:10065000410000447D413048484A32384040227AC7
:10066000007A0A0A727D0D19317D2629292F282644
:100670002929292630484D4020380808080808084C
:100680000808382F10C8ACBA2F102834FA00007BA5
:10069000000008142A142222142A140895002200AB
:1006A00095AA005500AAAA55AA55AA000000FF0065
:1006B000101010FF00141414FF001010FF00FF10A2
:1006C00010F010F0141414FC001414F700FF0000D4
:1006D000FF00FF1414F404FC141417101F10101F53
:1006E000101F1414141F00101010F0000000001F41
:1006F000101010101F10101010F010000000FF104C
:100700001010101010101010FF10000000FF140047
:1007100000FF00FF00001F10170000FC04F4141479
:100720001710171414F404F40000FF00F714141445
:1007300014141414F700F7141414171410101F10C5
:100740001F141414F4141010F010F000001F101FE8
:100750000000001F14000000FC140000F010F01056
:1007600010FF10FF141414FF141010101F000000CD
:1007700000F010FFFFFFFFFFF0F0F0F0F0FFFFFFD1
:100780000000000000FFFF0F0F0F0F0F3844443828
:10079000447C2A2A3E147E02020606027E027E0263
:1007A00063554941633844443C04407E201E200682
:1007B000027E020299A5E7A5991C2A492A1C4C72BF
:1007C00001724C304A4D4D303048784830BC625A46
:1007D000463D3E494949007E0101017E2A2A2A2AD6
:1007E0002A44445F444440514A444040444A5140B2
:1007F0000000FF0103E080FF000008086B6B083673
:1008000012362436060F090F0600001818000000E3
:100810001010003040FF0101001F01011E00191DD2
:100820001712003C3C3C3C0000000000F0F89C8E9D
:100830008783878E9CF8F00000FEFF030303030309
:10084000070EFCF80000FEFF0303030303070EFC82
:10085000F80000FFFF00000000000000FFFF0000A4
:10086000FEFF8383838383C7EE7C380000F8FC0E91
:1008700007030303070EFCF800003F7FE0C0808001
:10088000C0E07F3FFFFF01010101010101FFFF0007
:1008900000FFFF0C0C0C0C1C3E77E3C100007FFF37
:1008A000C0C0C0C0C0E0703F1F00001F3F70E0C06C
:1008B000C0C0E0703F1F00007FFFC1C1C1C1C1E3E4
:1008C000773E1C00001F3F70E0C0C0C0E0703F1FBB
:1008D000000000000001FFFF01000000D5F08D14B2
:1008E000A1C881CFD9F1AF20000601320026013224
:1008F000004A01320006013200260132004A01326C
:100900000006013200260132004A01320000800058
:10091000000000000123000000000240430000002E
:100920000005000606100000750000098008700030
:10093000000009000000000000000000100000029C
:10094000000000000000000000000020030401007F
:100950000006000500080074000000000000000808
:1009600030050000007600000000000001000230A9
:100970000000004000000000600005300000402042
:100980000010000075007000000000600000000012
:1009900000000000000012000000300002000040D3
:1009A0000000000000000040015000005000600006
:1009B0000000007000003000000000000070000027
:1009C000000060100000000020004006003000051C
:1009D00000000001004000000000000000070000CF
:1009E00000000056083002800007000000000000F0
:1009F00000000000000100120000000000000000E4
:100A000000345000000060700080000000005000C2
:100A10004902003000600700A000A09800100020EC
:100A20003000005000040006070008000500000028
:100A300000009000000000200048000007609A00BD
:100A4000000000003010000000A010000000002096
:100A50000003031000040000500000050000000027
:100A6000000600008000000000708076000000207A
:100A70000000000000004012040000000300000518
:100A80000000000067200004000010000005600066
:100A9000000000000000700038000000800000002E
:100AA0000000000000000000000000000000001036
:100AB000002000000000000000030000000400000F
:100AC00020000500001050030006706000000400C4
:100AD0007010000000000230400000000002000022
:100AE0005000000000607180000005070000000059
:100AF0000003000000900004006000890000012352
:100B00000000000400005000000230000006000059
:100B1000000000007400000000000000007165008B
:100B200000000008080000000000000000000000B5
:100B30000000000100002000020000304000000022
:100B40005036000000008704000000500000010043
:100B500000760000080000000000000000010230E4
:100B600000000400005100000450000000000200DA
:100B7000700000000800067890900030000000002F
:100B800060000000000001000000020000000030D2
:100B9000000540004201000000000000000030009D
:100BA0000006000060005000700000000000070018
:100BB000000000010000002300040000500000209D
:100BC00000005000640000000000000000087800F1
:100BD0000070000100000060039000000090000021
:100BE00000001000200030040000000100000000A0
:100BF000520000000000000000000000000054004F
:100C0000000000000006000000006030000000004E
:100C10001000002030000000004000000400000030
:100C2000000567000000000808000000090000023D
:100C30003500600000000079100000000200000193
:100C40003043000000500000000670000001000268
:100C50007900080000040000500000000000086057
:100C600000000000009000001200000300000400DB
:100C700000002000005600006070000070000000BE
:100C800000008900001305004000000000900000F3
:100C90000000800000001200000000310000000091
:100CA000000000000000000000450060000200603D
:100CB00000000070050000300000000000700040DF
:100CC00000001200200000300000034000507000BF
:100CD0000000600000004008000980000050007023
:100CE000100000009000060000000000000000005E
:100CF00000000000123040010050600000070000BA
:100D0000308000002000009000000000005097009C
:100D10000000000400800000060000100000000237
:100D200034500000000670000000000000000002C7
:100D300080050000000007400030000010000000A7
:100D40008600000000000012300000700000450026
:100D5000000000004600000000000000070008003E
:100D6000000000000000068053200000000000107A
:100D70000000000000001000000000200900023008
:100D800000040000000100007000600000009000FE
:100D9000400000000030000007805050800000003C
:100DA00060100000000000000002000000000000D1
:100DB00003000000400001003000050600000000B4
:100DC00007005000207080000060800400001000C8
:100DD0000000000000000000000000000001000012
:100DE000000002003000000040200000005006001B
:100DF000000400000700007536000010000000002D
:100E00002000200300000000040000000001000595
:100E100060650700000007080000400000000008AF
:100E20000000000300000000000000123004000079
:100E30000000500100000000020000000300000656
:100E40000000007000000000008080000500769027
:100E500040000900000000100000002034000034B1
:100E6000020006500000006000000050000000007A
:100E700000010000001230000000000060000000CF
:100E8000004045000000000000500002000000008B
:100E900000160300000100000000020020003000E6
:100EA00000000000000001600400050003060000CF
:100EB00000000000541000000000000023000400A7
:100EC00000030000240000500600600007005700E7
:100ED00001000000000000000102300000000000DE
:100EE000030001040000000652000000060050004C
:100EF00000400000001000000420005000300000FE
:100F00000000000000000000450000200106700005
:100F100000030000760000000000003240001000D6
:100F2000000000000000005000001023000000043A
:100F30000000000005000001230000000002000086
:100F4000000000000000005000036740060700108A
:100F50000500000004020000010000000300000082
:100F60000400054606000000100000000000000319
:100F700050002000000000000000000010003000C1
:100F800000000023540400000000050000001600CB
:100F9000602000000012300000000000200400402B
:100FA00050000000000067000500000030000060F5
:100FB00070001000000000102001003000040056F6
:100FC0000000000000000065003000000024000068
:100FD0000000000000120600230100005034000051
:100FE000400006000000000000005000000000006B
:100FF00000000000000000000100000023000000CD
:1010000000000045000000500000600400000000E7
:101010006000001023010000000000000000002319
:1010200000000000600002400000000004003005E5
:1010300005000100061000002100003000000050F3
:101040000000607000300040004060000000570069
:10105000200000000010000000000000000300005D
:1010600000450050006000704000086320078000C9
:1010700000000020101000500020000989102008F6
:1010800004300007300076000000605000000000CF
:101090000000000004010000400200300003004096
:1010A000200017500070000650000000600800008B
:1010B0008000000000001078000200909000000006
:1010C000083000020700000006000005000145008E
:1010D000000003460000000123000000000400009F
:1010E00020000700000500080300060000070000BC
:1010F000800165040000001020004001300026003F
:1011000000000030000000050000000000040000A6
:1011100060050000001000000400234500000000EE
:10112000200000000006000000000070000700160C
:10113000300005000001200000023000000003071D
:1011400000040500000000076000000650000000D9
:1011500000140000001006000002057000010000ED
:101160000003000000000200000004000040000036
:1011700070305000601000000023060000001008CE
:1011800000034000000070800050207450000000F8
:1011900000600000000000000001000005000000E9
:1011A000060000340000000000003002000041266C
:1011B0000700057000000000000017000600000492
:1011C00000010300500200000003002000040000A2
:1011D000000006500710000003000000400002005D
:1011E000500000000400300500000006100600005A
:1011F0000000020000000056500000407000100087
:10120000000000067000120000000003000234001D
:10121000000000000000000010000002300200008A
:101220000000045000004060000000360000000193
:10123000500120000000340400005000000076053A
:1012400000000067000030000000120000100000E5
:1012500000200000103034502070600050800004E6
:101260006007000000000000800000000010000087
:101270000000500000000050000030400024003208
:101280000010000000123000000000040005030000
:101290000006002000005040000000000001000097
:1012A00060000000001202030000413000007000E6
:1012B000600050000000007060000040500000001E
:1012C0000012000200310000000404000005300597
:1012D00000000000000000000000002010010000DD
:1012E0005000000000004600600007007005480044
:1012F00000000002800000012013400000000050A8
:10130000500600002000000430000006000000002D
:101310000001000000020000000000300000040096
:1013200000000600000050040010263500000000F8
:1013300000124005000001000006043000200000FB
:1013400000370765000000000000000000000001F9
:101350000021320000560000400004000000000799
:10136000005670003000000120065056000000407A
:1013700000000400203000001000000030000000D9
:10138000000000000001256700004000500130000F
:101390000003040800020000006008007010000252
:1013A00030200000000450000000001000305040C9
:1013B000000000000000000000000000001200001B
:1013C00000300030000000001004000000000205A2
:1013D0000050000400000000500100000002001056
:1013E00000034023000600050007000470006000B1
:1013F0000000000000010002000020035000000077
:101400004000000670451300000000067000010057
:10141000000000040000000000000005200005049A
:10142000600000070012700060101200000023002E
:10143000000500400004050000030000000000005B
:1014400000000000001000200040001300500200C7
:101450000065040000000000000030000060000093
:1014600000100000000021340020000000003000C7
:1014700000000006504670070050000000100020D9
:10148000300000004000000000000450000003167F
:1014900000000200000000065000000010000003E1
:1014A0002010000000000500000200005000004075
:1014B000306006004012000030030002000400000B
:1014C00000050000000600000000000500000164A7
:1014D00000012000000000040000300000000000B7
:1014E000000100040050030500200000000001205E
:1014F000000000450003400000020300000000055A
:101500000000000000000000101020030040010552
:101510000000040000000520006700000000000635
:101520000073000000000000000000000001202007
:1015300000030000000004310045065000000000D8
:101540006010404500207006000000700000006040
:10155000501320000000000300000000001230467D
:1015600000005000300000400010500020600001DA
:101570002003000000004503000602054061000052
:1015800000000000010040000300000000001240C5
:10159000002300100000000000000000234300149E
:1015A00002000000001000000000003002300000C7
:1015B000400400200000100001020503000000129A
:1015C000006345004000600000001200045002006B
:1015D00001060040006000500000000000120030D2
:1015E00000004000005200030010045000120002EE
:1015F000003003400001050005060006000004104D
:101600000000000421000503003000054020000018
:1016100000000000012023000001000034450050BC
:101620000000000120000340000003000001000052
:1016300000004200000010000230401000030000D3
:101640000045002050000000001000203000000085
:10165000000400000001525403100000200000327A
:101660000540000000000650346100001200100028
:101670003000056005040034006020000001000215
:1016800002050003046000300040106000005000BC
:101690000005010004020200000000003030501478
:1016A0000012000300000400341000002005005068
:1016B0000000001000000000000000300032400276
:1016C000040000010012045601000032040000036F
:1016D000000000005600001000052000003400004B
:1016E0000042005031000000000000020000030032
:1016F000101400400000000300000210200430130A
:1017000000000000056000060250000004012002F5
:101710000000030054040006500000601300001095
:1017200000002000000004004003000052003501CA
:101730000010000020005300004000000001005095
:10174000002340120000030000000100000000041C
:10175000004032000000000012340020060060004B
:101760000103004500050000000012030004000012
:1017700005000104003250000010204000305000ED
:1017800000000204000135001000000000000040CD
:10179000002430103000200123000004000040002D
:1017A0001005002053000001201000000030000050
:1017B000040024300000021004310000000000008A
:1017C00030002040102340000000000400020030E0
:1017D000000010100300200000302100040400006D
:1017E00000001002300005000050000230400140AF
:1017F000000001000234000020000000003410004E
:10180000000000200400343100000000100020120D
:1018100040000000000130000000003200400001E4
:10182000200032001000004305400000501202303A
:10183000000000503400000100000540001230009C
:1018400000001005000004302500401200000030A8
:1018500000401000000000432000000000120200C1
:101860003000000140400000301000100232400003
:10187000000003000000040000000001040000401C
:1018800000002030213000000000120200000300A0
:1018900030040040100010234040000000200000F1
:1018A000130000000000000003401000005012046C
:1018B0000020350001000002040013400000200059
:1018C000350050000000120200300000010340000B
:1018D000040010001000000002304000003004003E
:1018E000201200200000000003103004504050007F
:1018F00000000001010000002020304040003000C6
:10190000102002004003030004000000001000004B
:101910000012021030000004050035040010000021
:10192000230300000210400450500000100020006B
:101930000000034000001000432000240400001BAE
:10194000040A2A150408241004071F0A04061C545C
:101950001800006C6C000C0C00000000006C6C00A7
:101960000C0C000C0C00606000000C0C006C6C0097
:101970000C0C0000006C6C000C0C000C0C00606087
:1019800000006C6C000C0C000C0C000C0C000060D7
:1019900060000C0C000C0C006060000000000C0CDF
:1019A000006C6C00000000DBDB00000000000000A9
:1019B00000DBDB001818001818000303000000000B
:1019C00000DBDB000000000000DBDB001818001863
:1019D000180003030000DBDB0018180018180000D3
:1019E000000000030300181800181800C0C0000011
:1019F0000000000000DBDB00000000363600303065
:101A0000000000000036360000000000000000006A
:101A1000000030300036360030300000003636002E
:101A200000000000000000000000363600303000EA
:101A3000303000303000000606003030003030001A
:101A4000060600000000303000363600001010FCA2
:101A500004FC0808FF000000000000FF0808080F51
:101A6000080F0404FF000000000000FF040404103D
:101A70001008080808080F0808080808080F0808D0
:101A8000080404040404FC040404040404FC040422
:101A9000041010FC04FC08080F0808080808080FC8
:101AA0000808080F080F0404FC040404040404FCE0
:101AB00004040410100000000000FF0000000000FB
:101AC00000FF00000000000000E0BFA0A0A0A0A058
:101AD000A0BFE000001010000000000000C02010B7
:101AE0001008080808080800000000E0BFA0A0A037
:101AF000A0A0A0B8E404041010FC04FC0808080826
:101B00000808080808080808080F080F0404040457
:101B10000404040404040404041010080808080859
:101B20000808080808080808080808040404040449
:101B300004040404040404040404041010FC04FC5D
:101B40000808080808101020C0000000000F080F47
:101B500004E4B8A0A0A0A0A0A0BFE0000010100066
:101B6000000000003FC00000000000070808080057
:101B70000000000000000102020404040404041038
:101B800010FC04FC0808070000000000C03F000033
:101B9000000F080F04040404040202010000000006
:101BA0000010100000000000FF000000000000FF17
:101BB0000000000000000000FF000000000000FF27
:101BC000000000080B0002020200000904000001EE
:101BD0000202000005240010010524010101042473
:101BE00002060524060001070581031000400904D0
:101BF0000100020A0000000705020240000007057C
:101C000083024000000403090412010002EF0201F4
:101C1000404123368000010102030141726475696D
:101C20006E6F204C4C430041726475696E6F204C9E
:101C3000656F6E6172646F0008081C1414227F00C7
:101C4000000008081C1C1C3E7F002A493A20112471
:101C50001FBECFEFDAE0DEBFCDBF12E0A0E0B1E003
:101C6000E2E0F3E602C005900D92A031B107D9F78A
:101C700027E0A0E1B2E001C01D92AD31B207E1F76B
:101C80001EE0C7E2DEE004C02197FE010E94822F21
:101C9000C632D107C9F70E947B200C947F310C9487
:101CA000000080919C02089580E0E2EAF2E0811158
:101CB0008FEF002481938193819381930394D1F7D3
:101CC000E2E0F7E0128A118A108A17860895E2EAA4
:101CD000F2E0A0E0B8E000800EBC8111012C119769
:101CE000A0FDFDCF0192B9F70DB4089580E00C94EA
:101CF000670E90910C07982329F490910B07982375
:101D000081E009F480E00895480F592F511D141601
:101D1000150684F5803891056CF597FF02C090E0B8
:101D200080E04138510514F040E850E0481BFB01C9
:101D3000E770FF2721E001C0220FEA95EAF777FF5D
:101D400002C0695F7F4FFB0133E0F595E7953A9557
:101D5000E1F7F695FE2FEE27F795E795E80FF91FC7
:101D6000EE55FD4F415030F08191DF011197822BEC
:101D70008C93F8CF08952F923F924F925F926F927B
:101D80007F928F929F92AF92BF92CF92DF92EF920B
:101D9000FF920F931F93CF93DF93CDB7DEB72E97AC
:101DA0000FB6F894DEBF0FBECDBF5B016A013E8760
:101DB0002D87261737070CF00AC1E616F7060CF434
:101DC0001EC1621773075CF03A2D2B2DAD84BE84C3
:101DD0003D872E87382F292FC601C32ED22EAE1451
:101DE000BF04A1F5C816D90654F0382F292F8C1539
:101DF0009D0514F43C2D2D2D6C01832F922F0C1575
:101E00001D052CF0801791070CF4C80186018F5F27
:101E1000482F401BB501C8012E960FB6F894DEBFBF
:101E20000FBECDBFDF91CF911F910F91FF90EF902B
:101E3000DF90CF90BF90AF909F908F907F906F90EA
:101E40005F904F903F902F900C94840E302F212F55
:101E50008C01832F922F3E2D2F2D7501A32EB22E94
:101E60009601201B310B38872F834D855E854E19D7
:101E70005F095A8749873C01601A710A95012E193A
:101E80003F093A832983AC014C195D095C834B837C
:101E9000C5012D853E85821B930B9C878B872A1558
:101EA0003B0509F442C0215031093E832D8347018F
:101EB000512C412C312C212C8D819E818815990526
:101EC000CCF1C10169857A850E946E2F9B01200F9C
:101ED000311FC20169817A810E946E2F600F711FCC
:101EE0004F815885240E351E460C571C6217730708
:101EF0001CF4922F9B01692F50E48516910438F44D
:101F00006F5F462F421BB401C9010E94840E8FEF00
:101F1000881A980AD1CF3C2D2D2D6C01832F922F3A
:101F20003A2D2B2DAD84BE8479C04D855E855E83B0
:101F30004D83BDCFC4012D853E85821B930B2B8124
:101F40003C81829FA001839F500D929F500D1124D0
:101F50005E834D83C4018E199F09869D7001879D04
:101F6000F00C969DF00C1124A814B9040CF459C07F
:101F70008D819E816B857C850E946E2F9B012C0D2F
:101F80003D1DC70169817A810E946E2F600F711F0C
:101F90004D815E818B819C81480F591F5E834D83EB
:101FA000E60CF71C621773071CF4922F9B01692F34
:101FB00090E48916910438F46F5F462F421BB401F8
:101FC000C9010E94840E2FEF821A920ACDCF4D854F
:101FD0005E85E416F5060CF002CFE616F7060CF463
:101FE0009ACF302F212F86016C01832F922F3D85B0
:101FF0002E857E876D875701E32EF22EE5CE2D8547
:102000003E85E216F3060CF42BCF302F212F8601EC
:10201000C32ED22E3E2D2F2DED84FE843D872E879C
:102020001FCF2E960FB6F894DEBF0FBECDBFDF9147
:10203000CF911F910F91FF90EF90DF90CF90BF90C5
:10204000AF909F908F907F906F905F904F903F9058
:102050002F900895FC0180919B02882311F13FB7D6
:10206000F89482E08093E9002091F200822F90E0C2
:102070001816190614F481E090E0882339F02898A6
:1020800044E640939A024091F1004083222339F0C4
:102090002091F200211103C02BE62093E8003FBFFE
:1020A00008958FEF9FEF08952FB7F89483E0809302
:1020B000E9009091E800892F807295FF04C090910B
:1020C000F20080E4891B2FBF089580919202811154
:1020D0000DC082E080938E0284E080938F02109284
:1020E00091021092900281E0809392028EE892E039
:1020F0000895CF93DF931F92CDB7DEB76983DC01DC
:10210000ED91FC910280F381E02D41E050E0BE01B1
:102110006F5F7F4F09950F90DF91CF91089583E016
:102120008093E9008091F200882319F08AE380937C
:10213000E80008950E94541090E00895CF93DF9333
:102140001F92CDB7DEB7FC018485958597FD08C049
:102150002FEF3FEF358724870F90DF91CF910895C0
:10216000CE0101960E942A10019719F4898190E00E
:10217000F3CF8FEF9FEFF0CF0F931F93CF93DF93AA
:102180001F92CDB7DEB78C01FC018485958597FF42
:102190000BC0CE0101960E942A10019771F489812B
:1021A00090E0F80195878487F801848595850F90E4
:1021B000DF91CF911F910F9108958FEF9FEFF1CF96
:1021C000FC018485958597FD0BC09FB7F89482E04C
:1021D0008093E9008091F2009FBF90E001960895FE
:1021E0009FB7F89482E08093E9008091F2009FBF4E
:1021F00090E00895409188025091890220918602D2
:102200003091870242175307B4F49091E80095701B
:10221000E1F39091E80092FD19C08093F100809164
:1022200088029091890201968F739927892B19F45E
:102230008EEF8093E8008091880290918902019648
:10224000909389028093880281E0089580E0089548
:10225000DF92EF92FF920F931F93CF93DF93D82ECD
:102260008A01EB017B01E40EF51ECE15DF0559F066
:10227000D7FE12C0FE0184910E94FA1021968111AE
:10228000F4CF0FEF1FEFC801DF91CF911F910F9196
:10229000FF90EF90DF9008958881EECF0F931F930A
:1022A000CF93DF931F92CDB7DEB782E0898342E4FC
:1022B00050E063EC7BE180E80E9428110E946510E9
:1022C000DC0112960D911C910115110589F0D801C0
:1022D000ED91FC910280F381E02DBE016F5F7F4F95
:1022E000C801099597FD04C0F80100851185ECCF60
:1022F00089810F90DF91CF911F910F9108956150C7
:1023000030F02091F100FC0120830196F8CF28984D
:1023100084E680939A020895AF92BF92CF92DF92A3
:10232000EF92FF920F931F93CF93DF936C017B018A
:102330008B01040F151FEB015E01AE18BF08C0171B
:10234000D10759F06991D601ED91FC910190F0818E
:10235000E02DC6010995892B79F7C501DF91CF9151
:102360001F910F91FF90EF90DF90CF90BF90AF90B3
:1023700008953FB7F89480911A0290911B02A091A2
:102380001C02B0911D0226B5A89B05C02F3F19F075
:102390000196A11DB11D3FBFBA2FA92F982F8827E5
:1023A000BC01CD01620F711D811D911D42E0660FC0
:1023B000771F881F991F4A95D1F708958F929F9292
:1023C000AF92BF92CF92DF92EF92FF926B017C01AE
:1023D0000E94B9114B015C01C114D104E104F10464
:1023E000B9F00E94B911681979098A099B09683EF8
:1023F00073408105910580F321E0C21AD108E108FC
:10240000F10888EE880E83E0981EA11CB11CE4CF71
:10241000FF90EF90DF90CF90BF90AF909F908F9004
:1024200008958F929F92AF92BF92CF92DF92EF92D8
:10243000FF920F931F93CF93DF936C017B018A016F
:1024400080910D01882309F45CC080919B02882350
:1024500009F457C080918D0280FF05C08091E00093
:1024600082608093E000E801B12C8AEFA82E93E00F
:10247000892E2AE3922E209711F4BB20D9F10E94D5
:10248000541081110AC0AA94AA20D9F161E070E029
:1024900080E090E00E94DE11EECF8C171D0611F057
:1024A0000CF08C2F9FB7F8948092E9002091E800FF
:1024B00025FD02C09FBFDFCF282F30E0C21BD30B0A
:1024C000F701815020F041914093F100FACFE20EE4
:1024D000F31EBB2021F09092E800B12CEBCF80914D
:1024E000E80085FDE7CF9092E800BB24B3942097E5
:1024F00009F3F3CF5D9884E680938C0210161106E1
:102500003CF081E090E0F6019383828310E000E0EC
:10251000C801DF91CF911F910F91FF90EF90DF9055
:10252000CF90BF90AF909F908F9008952091A1027F
:10253000E0919F02F091A002CF0102969093A00239
:1025400080939F02222319F08591949108958081B0
:1025500091810895CF92DF92EF92FF92CF93DF9314
:102560000E949612811520E8920791F480917100E3
:102570008D7F809371001092910046984798109239
:102580001202DF91CF91FF90EF90DF90CF900895EE
:1025900021E020931202813020E8920751F48091CB
:1025A0009D0290919E029093A00280939F020E94B0
:1025B000961297FD05C020911102222309F454C000
:1025C00020911002211150C021E020931302EC0150
:1025D000DF77209709F04BC081E080931402469882
:1025E0003FE9C32E3FE0D32EE12CF12CCAEFD0E01F
:1025F000E0910007F09101070995811103C081E086
:102600008093140280911302882329F08091140290
:10261000882309F43FC047980E9496120097F1F171
:102620009C01DE010E944B2FDC01CB0129E0B59516
:10263000A795979587952A95D1F7109290002AE053
:1026400020939100D0929900C09298008093150237
:1026500090931602A0931702B09318028091710014
:102660008260809371008DCF10921302B0CF9E01D3
:1026700050E040E060E472E48FE090E00E94D32EEE
:1026800069017A0181E0C81AD108E108F1081092C5
:102690001402AECF4699BFCF479ABECF8FEF9FEFC0
:1026A000DC01CBCF9C01E1E7F0E090819D7F90833E
:1026B0001092A102E2EFF6E0F093A002E0939F02F5
:1026C000F0939E02E0939D023183208382E390E0A9
:1026D000938382837583648397838683518740873E
:1026E000938782870C94AA124F925F926F927F9287
:1026F0008F929F92AF92BF92CF92DF92EF92FF9212
:102700000F931F93CF93DF934C015901FC2DC02FE2
:10271000D0E0CE01880D991D181619060CF06CC07A
:1027200020E8821691040CF067C09B012E0D311D2C
:10273000121613060CF060C0603471050CF05CC01A
:102740004115510509F458C0E62FE770FE2EDB0154
:1027500077FD179633E0B595A7953A95E1F73A2FAF
:1027600077FF04C0FF2011F03FEF3A0F662777276D
:102770006819790997FC02C070E060E08038910523
:102780000CF44BC090E89819961BA32F032E000C55
:10279000BB0B1A2F10953F3F0CF010E021E08E2D5F
:1027A000877009F420E0E694E694E694E20EAE0D1C
:1027B000B11D19971CF028E0E22EE31AE11A310F3F
:1027C00020E83203D0011124A80DB91DA60FB71FB0
:1027D000019F600D711D1124460F571F0F2D0F2CE7
:1027E000000C110BF33009F41CC1C8F4F13009F4EA
:1027F000D0C0F23009F47CC0DF91CF911F910F91CE
:10280000FF90EF90DF90CF90BF90AF909F908F9010
:102810007F906F905F904F900895902FB5CFFA3FC3
:10282000B1F1232F2E0DFB3F39F7321729F3BD01EC
:102830006E557D4FD12CC12CC91608F0A4C0FA01E9
:10284000EC0DFD1DE491F0E04F01002E02C0880C5C
:10285000991C0A94E2F737FD06C0FB018081E82C41
:10286000E0948E218083FF2061F0373054F45B01C7
:10287000F0E8AF0EB11CE92CE094F50180818E21C7
:102880008083FFEFCF1ADF0A6F5F7F4FD5CF232FF3
:102890002E0D321709F4B0CFBD016E557D4FD12CEE
:1028A000C12CC91608F069C0FA01EC0DFD1DE491B8
:1028B000F0E04F01002E02C0880C991C0A94E2F748
:1028C00037FD04C0FB01808188298083FF2051F0FF
:1028D000373044F45B01F0E8AF0EB11CF5018081A4
:1028E00089298083FFEFCF1ADF0A6F5F7F4FD9CF2F
:1028F0006FEF70E00F2C02C0660F771F0A94E2F7AB
:1029000060957095772E232F2E0D321709F474CF12
:10291000FD01EE55FD4F6F01B12CA12CA91638F524
:10292000FA01EA0DFB1DE491F0E02F01002E02C038
:10293000440C551C0A94E2F737FD05C0F60180816E
:10294000862384298083FF2059F037304CF44601D8
:10295000F0E88F0E911CF401808187218529808306
:10296000FFEFAF1ABF0A8FEFC81AD80AD7CF3F5F61
:102970004C0F5D1FA058BF4FC8CF3F5F4C0F5D1F6E
:10298000A058BF4F86CF3F5F4C0F5D1FA058BF4F71
:102990004CCF6A0D7B1D232F2E0D321709F42CCF3F
:1029A000FD01EE55FD4F6F01B12CA12CA91688F544
:1029B000FB01EA0DFB1D8490912C002E02C0880CB7
:1029C000991C0A94E2F780949094FA01EA0DFB1D99
:1029D0006490712C002E02C0660C771C0A94E2F7FA
:1029E00037FD05C0F6018081882186298083FF207C
:1029F00049F037303CF4F601E058FF4F80818921DF
:102A000087298083FFEFAF1ABF0A8FEFC81AD80A51
:102A1000CDCF3F5F4C0F5D1F6C0F7D1FA058BF4F88
:102A2000BCCFC92ED12CFA01E60FF71FAE55BD4F12
:102A300000E810E00C191D09CC19DD09BE01660F74
:102A4000771F41E050E06A010F2C01C0CC0C0A94C2
:102A5000EAF7592F2E2D792ECF93DF93ED01EF96C4
:102A6000EF9622968590A590FF2059F08C9C40010E
:102A7000AC9C500137302CF4E880B094EB20E9286E
:102A8000E99233233AF0EC90A094EA20E828ED9202
:102A90000C944B1511965A9529F72A9551F0572DFC
:102AA00033951124E60FF11DA00FB11DC00FD11DEC
:102AB000D9CFDF91CF9111249FCECF92EF920F9378
:102AC0004115510541F1FA0104913196E4904E5FB0
:102AD0005F4F2223D1F0A1E0B0E03E2D377011F41A
:102AE000B0E0A0E0EE2DE695E695E695EA0FFB2F27
:102AF000F11D0E9FD0010F9FB00D11242A9FF001F0
:102B00002B9FF00D11244E0F5F1F22E0C22E30E0EC
:102B100020E00E9474130F91EF90CF9008952D9AAA
:102B20000895BC0190E080E00C94DE118FB1809597
:102B3000807F669B88601C9B84600895CF93DF93A1
:102B4000C2E0D7E089858A870E9496158987DF9140
:102B5000CF91089510929C023E983F9808953E9A16
:102B60003F9A81E080939C02089580389105B8F4E3
:102B700060347105A0F420E191E061FD94E060FD16
:102B8000990F62FD9295687F269FD0011124A80FAE
:102B9000AE55BD4F8C9140FF03C0892B8C93089597
:102BA00090958923FBCF8F929F92AF92BF92CF9245
:102BB000DF92EF92FF920F93CF93DF935B01EC01D3
:102BC0004C01840E911C6B01C20ED11CC815D90595
:102BD000D4F47501B7FE02C0F12CE12CC60121E44A
:102BE000C216D10414F080E490E0E816F9064CF423
:102BF000402FB701CE010E94B5158FEFE81AF80AF1
:102C0000EDCF2196E3CFDF91CF910F91FF90EF9021
:102C1000DF90CF90BF90AF909F908F900895EF92EC
:102C2000FF920F93CF93DF937B01C82FD0E0442313
:102C300079F01092150781E08093160701E02BE0F0
:102C400042E6BE016250710980E190E00E94D31516
:102C500081E190E09093120780931107D0931407BD
:102C6000C0931307F701448155816081718182E02F
:102C700097E00E948C1181E080931507109216074F
:102C8000DF91CF910F91FF90EF9008958F929F92D7
:102C9000AF92BF92CF92DF92EF92FF920F931F936A
:102CA000CF93DF935C01EB01042FE22E60347105BA
:102CB00010F40E94840EEC0EFD2EF11CB701615041
:102CC00071096034710520F4402FC5010E94840E03
:102CD000D7FF02C0D0E0C0E04E01670181E4E816F2
:102CE000F1041CF080E4C82ED12C8C149D044CF40B
:102CF00041E0B401C5010E94B5158FEF881A980A0A
:102D0000ECCF0A0D1B2D111D01501109CC15DD054D
:102D10003CF441E0BE01C8010E94B5152196F6CFF2
:102D2000DF91CF911F910F91FF90EF90DF90CF90A7
:102D3000BF90AF909F908F9008952F923F924F92A7
:102D40005F926F927F928F929F92AF92BF92CF923B
:102D5000DF92EF92FF920F931F93CF93DF93CDB744
:102D6000DEB72A970FB6F894DEBF0FBECDBF9A83A9
:102D700089836A3061F5DC0155968C91B8E08B9FB0
:102D800090011124E981FA8181899289820F931F30
:102D9000928B818B108A178681E090E02A960FB67D
:102DA000F894DEBF0FBECDBFDF91CF911F910F9181
:102DB000FF90EF90DF90CF90BF90AF909F908F905B
:102DC0007F906F905F904F903F902F9008956D305F
:102DD00019F329813A813A872987D9011F96AD9045
:102DE000BC90B0E8AB16B1040CF07BC0F901C1880F
:102DF000D288F0E4CF16D1040CF073C0D9015596F7
:102E00006C90559745E09501649E200D311D11246D
:102E1000121613060CF065C0262C312C910153E0DC
:102E2000220F331F5A95E1F72C0D3D1D1216130684
:102E30000CF057C05496BC91BB83E985FA85F389A1
:102E4000FC83649FB00111249B01245D3C4F3A83B5
:102E50002983712CE981FA818491F5E07F1201C008
:102E600080E0460138E0532E282F30E03E832D834A
:102E70004C8080FF4B80411004C03B818C8138170F
:102E8000E1F010E000E00615C0F4D501A00FB11F7D
:102E9000B887AF83F12CE12CE61460F4B701680D1C
:102EA000791D442D8F8198850E94B515BFEFEB1ACF
:102EB000FB0AF2CF0F5F1F4FE6CF8D819E81959564
:102EC00087955A94820C931C5110CECF7394E9814C
:102ED000FA813196FA83E983A20CB31CF6E07F12E3
:102EE000B9CFA985BA8555962C915597422F50E0B8
:102EF0001F968D919C91B6E02B9F800D911D112402
:102F0000E985FA85908B87872689222309F444CFA7
:102F10006AEF64039001659F300D112420583F4FE4
:102F2000281739070CF038CFDF010190F081E02D30
:102F30000190F081E02D6AE0CD0109952DCF089533
:102F4000089590E080E0089560912D0270912C0228
:102F50002AE232E040E0641791F090E080E08717C9
:102F600050F4F901E80FF91F52855F700196511175
:102F7000F6CF80E008954F5F275F3F4FECCF81E0B1
:102F80000895E2E2F2E015821382148208957091AE
:102F90002D02A0912C024AE252E060E07617B9F0CF
:102FA00030E020E02A1778F4FA01E20FF31F92854F
:102FB000B92FBF708B1304C0907F903F09F0128629
:102FC0002F5F3F4FEFCF6F5F475F5F4FE7CF0895B2
:102FD0004AE451E066E271E086E091E00C9452131D
:102FE00042E550E069E470E081E490E00C94521313
:102FF0002F923F924F925F926F927F928F929F9209
:10300000AF92BF92CF92DF92EF92FF920F931F93F6
:10301000CF93DF93CDB7DEB72B970FB6F894DEBF13
:103020000FBECDBF9B878A873B014F830E94540E02
:1030300010E000E05801B594A7946801F12CE12C50
:1030400041E0B601C7010E94B515C501801B910B77
:1030500097FF81C081E0C81AD1089FEFE91AF90AE9
:103060000E151F056CF70D5F1F4F0230E1E01E07C4
:1030700009F740902D024BE0449ED02C1124109172
:103080002C02149FF02C112427E02D0D47E04F0D4A
:1030900000E0B301635071098A859B8503970E9404
:1030A000D31525E02D0D45E04F0DB3016250710998
:1030B0008A859B8502970E9446167E826D828AE2EF
:1030C00092E09A8389839C838B831301912C812CBA
:1030D000512C812F90E0998788875BE0F52E84142E
:1030E0009504DCF1630192E0C90ED11CB12CA12C36
:1030F000012F10E08A849B84E2E08E0E911C4BE04D
:10310000342EF12CE12CA414B5040CF075C0E0169B
:10311000F1060CF065C0E981FA81EE0DFF1DE28534
:103120008E2F807F803F99F4EF70F0E0EE0FFF1F4D
:10313000EC5EFE4F408151813E9CC0013F9C900D52
:10314000112420E0B601880D991D0E945D15FFEF46
:10315000EF1AFF0ADCCF5C0180CFB12CA12C88854F
:103160009985A816B90684F5EB81FC81EA0DFB1D53
:10317000E2858E2F807F21F1803F11F1E295EF7083
:10318000F0E0EE0FFF1FE65CFE4F408151814115DC
:103190005105B1F0FA0104913196E4904E5F5F4F12
:1031A000FA9CC001FB9C900D1124CC24C39424E113
:1031B00033E0B101EA85FB858E0F9F1F0E947413D7
:1031C000FFEFAF1ABF0ACBCF8FEF881A980A9BE0A8
:1031D000290E311CEB81FC813996FC83EB837FCF78
:1031E0008FEFA81AB80AE981FA813996FA83E98340
:1031F000FBE0CF0ED11C85CFCA84DB84B12CA12C7F
:103200000A151B056CF041E06D817E81C6010E94AC
:10321000B5158FEFA81AB80A9BE0C90ED11CF0CFE4
:10322000EFEFEE1AFE0A8D819E810B969E838D83B1
:103230004E145F040CF7909123028BE0B301989F2A
:10324000600D711D1124909122022CE04CE0EA8562
:10325000FB85989FE00DF11D1124CF010E944616B9
:10326000F0913202F983FF23F1F100E020E44AE01B
:1032700070E060E086E790E00E94D31520E449E02A
:1032800070E060E087E790E00E9446168F819981A8
:10329000899FB00111246A5F7F4F01E020913302C2
:1032A00045E089E790E00E94D31584E0E82EF12CF8
:1032B0000DE710E024E030E049E750E062E070E024
:1032C0008BE790E00E94BB0E9DE3E92EF12C0BE70B
:1032D00010E02BE330E04DE750E06BE370E089E76E
:1032E00090E00E94BB0E2B960FB6F894DEBF0FBE87
:1032F000CDBFDF91CF911F910F91FF90EF90DF90A5
:10330000CF90BF90AF909F908F907F906F905F9085
:103310004F903F902F9008950F931F932F3F3207A8
:1033200009F44AC090912C029217130609F00CF48C
:1033300043C00F3F100709F43FC090912D02901732
:103340001106D1F1CCF199E0909FF001919FF00D21
:103350001124E65DFD4FE20FF31F9285792F707FF8
:10336000703F29F092959F7059F481E026C09F70BC
:10337000961306C042171306C1F750171106A9F796
:103380009091230240912202F9E09F9F9001112425
:10339000265D3D4F240F311DF901928592959F7056
:1033A0008230A9F08330D1F0813051F09A30E9F2C7
:1033B0009C30D9F29330C9F280E01F910F910895AB
:1033C000963099F2983089F29430B1F7CECF973099
:1033D00061F29B3051F2913079F7C7CF953029F2E5
:1033E000993019F2923041F7C0CF282F30E0A62F44
:1033F000B0E0F90189E0689FE00DF11D1124E65D60
:10340000FD4FE285E295EF70E150EC3000F5F0E021
:10341000E85EF54E9091270289E08A9FA0018B9F7C
:10342000500D1124465D5D4F240F351F0C94822FE3
:103430002A1A2C1A241A281A241A2A1A241A2C1A7C
:10344000281A2A1A281A2C1A9063F90192870895CB
:103450009064FBCF9061F9CF9062F7CF90912302F7
:10346000933080F080912D02482F4350550B9417D4
:1034700015061CF48EEF890F0895853008F485E059
:103480008550089580E00895CF9388E00E94790EDA
:10349000811104C084E00E94790E81111092010113
:1034A00020E04EE052E061E170E080E290E00E94B6
:1034B0005D158091090790910A0760E370E00E9412
:1034C0005A2F8831910570F4C1E10C9708F0CEE1D4
:1034D00020E047E052E069E170E08BE590E00E9477
:1034E0005D1504C0CFE1849708F0C0E26C2F70E056
:1034F00041E084E390E00E94B515C0FD0AC020E0E1
:1035000043E052E06CE170E08DE290E0CF910C94EA
:103510005D15CF910895CF92DF92EF92FF920F93B6
:103520001F93CF93DF93CDB7DEB7A1970FB6F89473
:10353000DEBF0FBECDBF282F30E050E040E019A223
:103540008E010F5D1F4F8AE0C82ED12CE12CF12C8B
:10355000CA01B901A70196010E94292F605DF801F7
:1035600062938F01211531054105510589F790E0DE
:1035700080E0309761F001900020E9F73197AF01CA
:10358000401B510BB80182E097E00E948C11A1967C
:103590000FB6F894DEBF0FBECDBFDF91CF911F9164
:1035A0000F91FF90EF90DF90CF900895FC01019074
:1035B0000020E9F73197AF01481B590BBC0182E0AD
:1035C00097E00C948C110E946A31EF92FF920F9356
:1035D0001F93CF93DF93EC017B01198218821B822A
:1035E0001A821D821C82FB0101900020E9F73197AD
:1035F0008F01061B170BB8016F5F7F4F90E080E0D3
:103600000E94AD300097B9F0998388831B830A83A9
:103610002C813D81232B11F4FC0110821D830C832E
:10362000B70188819981DF91CF911F910F91FF9010
:10363000EF900C94783188819981009711F00E9465
:103640002430198218821D821C821B821A82DF910B
:10365000CF911F910F91FF90EF9008951F93CF93FB
:10366000DF93EC01162F0E94BD2E181739F0612F41
:10367000CE01DF91CF911F910C94C52EDF91CF9198
:103680001F91089580919C02882341F00E94AA1501
:1036900060919C0282E090E00C942E1B0E94AF157A
:1036A000F7CF1F93CF93DF93C9ECD0E00E949E1514
:1036B00088E00E94790E182F81111EC084E00E94BC
:1036C000790E882399F00E94421B80919C0248E366
:1036D0005CE1882311F042E45CE120E068E370E003
:1036E00088E790E00E945D150E94760E85E090E0EC
:1036F0000E9491152197D1F6812FDF91CF911F91D3
:1037000008950F931F93CF93DF93022F70E090E003
:103710000E945D150E94760E41E250E065E270E085
:1037200081E290E00E945213C5E1D0E00E949E1514
:1037300088E00E94790E182F81111EC084E00E943B
:10374000790E882399F00E94421B80919C0248E3E5
:103750005CE1882311F042E45CE1202F68E370E033
:1037600088E790E00E945D150E94760E8FE090E061
:103770000E9491152197D1F6812FDF91CF911F9152
:103780000F9108950F93011103C00F910C94811BA9
:10379000802F0F9108950C94BD2EEF92FF920F93FE
:1037A000CF93C62FE82EF12C442379F01092150701
:1037B00081E08093160701E029E04CE5B7016150F4
:1037C000710982E190E00E94D31583E190E090932B
:1037D000120780931107F0921407E0921307C73085
:1037E00009F45AC078F4C53021F1C63009F440C05C
:1037F00081E08093150710921607CF910F91FF90EB
:10380000EF900895C83009F45BC0C93089F784EBA4
:1038100091E00E94D61A86E190E00E94CB1B8A308C
:1038200008F062C082EB91E00E94D61A86E190E037
:1038300010C086E891E00E94D61A82E190E00E94D2
:10384000CB1B8A3090F482EB91E00E94D61A82E181
:1038500090E00E94CB1B0E948B1A81E991E00E94AC
:10386000D61A8EE10E948B1AC3CF83EB91E0EDCF85
:1038700083E991E00E94D61A83E190E00E94CB1B7D
:103880008A3038F482EB91E00E94D61A83E190E00E
:10389000E0CF83EB91E0F8CF8EE991E00E94D61A59
:1038A00084E190E00E94CB1B8A3038F482EB91E0F7
:1038B0000E94D61A84E190E0CCCF83EB91E0F8CF60
:1038C00089EA91E00E94D61A85E190E00E94CB1B24
:1038D0008A3038F482EB91E00E94D61A85E190E0BC
:1038E000B8CF83EB91E0F8CF83EB91E09DCF1F92AF
:1038F0000F920FB60F9211248F939F938091E10046
:103900009091E100937F9093E10083FF0FC01092AC
:10391000E90091E09093EB001092EC0092E3909319
:10392000ED0010929B0298E09093F00082FF22C07D
:1039300093E09093E9009091F200992319F09AE3B3
:103940009093E80090918C02992341F090918C0221
:10395000915090938C02911101C05D9A90919A02BE
:10396000992341F090919A02915090939A0291116B
:1039700001C0289A84FF18C08091E2008E7E816089
:103980008093E2008091E1008F7E8093E10080913E
:103990008D028E7E806180938D029F918F910F901A
:1039A0000FBE0F901F90189580FFF7CF8091E20017
:1039B0008E7E80618093E2008091E1008E7E809314
:1039C000E10080918D028E7E8160E5CF1F920F9283
:1039D0000FB60F921124CF92DF92EF92FF920F93C6
:1039E0001F932F933F934F935F936F937F938F9387
:1039F0009F93AF93BF93EF93FF93CF93DF93CDB795
:103A0000DEB76C97DEBFCDBF1092E9008091E80071
:103A100083FF25C068E0CE0145960E947F1182EFAA
:103A20008093E8008D8987FF39C09091E80090FF6E
:103A3000FCCF982F907609F034C19E894F89588D1C
:103A40002F89F88C911131C0803861F580918B02FB
:103A50008093F1001092F1008EEF8093E8006C9655
:103A60000FB6F894DEBF0FBECDBFDF91CF91FF91AF
:103A7000EF91BF91AF919F918F917F916F915F91E6
:103A80004F913F912F911F910F91FF90EF90DF90F9
:103A9000CF900F900FBE0F901F9018959EEF9093B0
:103AA000E800C7CF1092F100D5CF913059F48111C1
:103AB000D3CF4130510581F680918B028D7F809369
:103AC0008B02CACF933049F48111C6CF41305105E2
:103AD00019F680918B028260F2CF953041F480918B
:103AE000E80080FFFCCF20682093E300B5CF96303C
:103AF00009F0A9C00B8D1C8D22E01092E9001092F4
:103B0000890210928802F2122EC01092870210923F
:103B100086020E944E111F8299E09983FA8291E0F9
:103B20009E8390EA98879AEF998720918802309136
:103B30008902275F3F4F3C832B838D831092E900DE
:103B400010928902109288021093870200938602D5
:103B500049E050E0BE016F5F7F4F80E00E94281176
:103B60000E944E1179CF10938702009386020E9423
:103B70006510DC0112960D911C910115110509F4D7
:103B800051C1D801ED91FC910480F581E02DBE0179
:103B90006B5E7F4FC8010995009709F03EC1F8019F
:103BA00000851185EACFF3E0FF120EC08F898823CC
:103BB00009F440C0823061F440E860E187E29CE1B2
:103BC0000E94C31F811148CF81E28093EB0047CF51
:103BD000813029F440E86BE08BE19CE1F1CF833048
:103BE00099F70E946510DC011296ED90FC908E0111
:103BF0000F5F1F4F6801E114F10479F0D701ED91D7
:103C0000FC910680F781E02DB801C7010995080FE6
:103C1000111DF701E084F184EECFD8011C92F6016A
:103C200001900020E9F73197BF016C197D0940E050
:103C3000C601C6CF65E07CE1FB01449150E080E81D
:103C40000E94281109CF973009F4BECF983021F493
:103C500081E08093F10000CF993009F0FDCE8370B0
:103C600009F0B2CFEAE5F1E081E031E096E321919D
:103C7000222371F08093E9003093EB00DF0111976C
:103C80002C912093EC009093ED008F5F873079F7B3
:103C90008EE78093EA001092EA008F8980939B025E
:103CA000DBCE8B8D9C8D1092E900109289021092D0
:103CB00088029093870280938602898D811192C039
:103CC0008E899D89913A49F4813209F07DCF47E090
:103CD00050E066E071E080E0B3CF913209F074CF3C
:103CE000833269F48F89988DB0E0A0E0809302015F
:103CF00090930301A0930401B0930501ADCE8032EF
:103D000069F48091E80082FFFCCF67E086E091E0F3
:103D10000E947F118BEF8093E8009ECE823209F0E3
:103D20009BCE8F8980930D01EEEFFFE785919491F3
:103D30008B3F9C4D51F1E0E0F8E0809106019091BD
:103D40000701A0910801B0910901803B9440A105B1
:103D5000B105F1F480910D0180FD1AC0EE3F8AE0BB
:103D6000F80789F587E797E7918380838091600062
:103D700080938A0288E19BE00FB6F894A89580931F
:103D800060000FBE9093600067CEEEEFFAE0D5CFF3
:103D9000808191818737974709F05ECEA895809101
:103DA000600088618093600080918A028093600047
:103DB000EE3F2AE0F20789F08091FE0A9091FF0A17
:103DC0009183808349CE808191818737980751F212
:103DD0009093FF0A8093FE0AC5CF1092FF0A1092BB
:103DE000FE0A3ACE0E946510DC0112960D911C91DC
:103DF0000115110509F4E8CED801ED91FC9101906F
:103E0000F081E02DBE016B5E7F4FC80109958111E5
:103E100023CEF80100851185EBCF181619060CF496
:103E20001BCED2CEF1E0FF12BECE69E07CE104CF22
:103E30001F920F920FB60F9211242F933F938F93DF
:103E40009F93AF93BF9380911E0290911F02A09108
:103E50002002B09121023091190223E0230F2D3767
:103E600058F50196A11DB11D2093190280931E02E1
:103E700090931F02A0932002B093210280911A0216
:103E800090911B02A0911C02B0911D020196A11DF0
:103E9000B11D80931A0290931B02A0931C02B09351
:103EA0001D02BF91AF919F918F913F912F910F90E4
:103EB0000FBE0F901F90189526E8230F0296A11DA4
:103EC000B11DD2CF1F920F920FB60F9211242F93D4
:103ED0003F934F935F936F937F938F939F93AF9392
:103EE000BF93EF93FF938091150290911602A091DA
:103EF0001702B0911802892B8A2B8B2B09F440C032
:103F00008091140281110BC088B190E4892788B98F
:103F100080911302882319F088B1805888B9809164
:103F2000150290911602A0911702B091180218166E
:103F300019061A061B069CF4809115029091160230
:103F4000A0911702B09118020197A109B1098093BD
:103F5000150290931602A0931702B0931802FF91D6
:103F6000EF91BF91AF919F918F917F916F915F91F1
:103F70004F913F912F910F900FBE0F901F9018956A
:103F80000E94AA12ECCFEF92FF920F931F93CF9350
:103F9000DF93F82E192FE62E042F81E0860F880F6D
:103FA0000E94FA1083E00E94FA10CF2DD12FEC0E60
:103FB000FD2EF11CCE15DF05B9F007FF13C0FE0181
:103FC00084910E94FA10182F80E00E94FA10812339
:103FD00021968111EFCFDF91CF911F910F91FF902B
:103FE000EF9008958881EDCF81E0F5CF0F931F9377
:103FF000CF93DF938C0181E090E00E94CB1B80FF88
:1040000031C08AE090E00E94CB1B9FEF980F9E3F4B
:1040100048F522E330E0D80150963C932E931F9749
:1040200028E330E052963C932E935197CBE0D0E0BA
:10403000D801ED91FC910190F081E02D682FC8012D
:104040000995CE010E94CB1B2196C131D10581F784
:104050000E94760E88EE93E0DF91CF911F910F9131
:104060000C949115DF91CF911F910F9108950497B2
:104070000C94F61FE2EAF6E01382128288EE93E0D7
:10408000A0E0B0E084839583A683B78384E691E0C3
:10409000918380838FEF9FEF95878487E2E0F7E03D
:1040A000138212821186128680E18387108617821E
:1040B000158686E791E09183808384E891E095837B
:1040C0008483108A1786128A118A81E0838B148A6E
:1040D000858B168A81E59EE0909301078093000707
:1040E00080E090E89093FF068093FE0646983E9A03
:1040F00047983F9A0895CF93DF9300D000D000D027
:10410000CDB7DEB7789484B5826084BD84B5816014
:1041100084BD85B5826085BD85B5816085BD809192
:104120006E00816080936E0010928100809181000A
:104130008260809381008091810081608093810002
:1041400080918000816080938000809191008260E6
:104150008093910080919100816080939100809183
:1041600090008160809390008091C1008460809372
:10417000C1008091C10082608093C1008091C10024
:1041800081608093C1008091C30081608093C300EF
:104190008091C00082608093C0008091C2008160E5
:1041A0008093C20080917A00846080937A0080912D
:1041B0007A00826080937A0080917A008160809397
:1041C0007A0080917A00806880937A0010929B0236
:1041D00010928B0210928D028091D70081608093A3
:1041E000D70080EA8093D80089B5806189BD89B500
:1041F000826089BD09B400FEFDCF61E070E080E01F
:1042000090E00E94DE118091D8008F7C80618093C5
:10421000D8008091E000807F8093E0008091E100F1
:104220008E7E8093E1008DE08093E200559A209A83
:1042300085E080932A0210922B0280E190E00E9498
:10424000CB1B182F81E190E00E94CB1B1C3411F492
:10425000803519F16CE480E190E00E942E1B60E54E
:1042600081E190E00E942E1B60E082E190E00E94DC
:104270002E1B60E083E190E00E942E1B60E084E151
:1042800090E00E942E1B60E085E190E00E942E1BD2
:1042900060E086E190E00E942E1B81EC80937C0020
:1042A00085B1806F85B984B1877E84B984B1876E0A
:1042B00084B95E9A5F988AB1806D8AB9769A6E9851
:1042C00081B3806F81BB899880B38D7080BB80E59E
:1042D0008CBD81E08DBD85E090E00E9491155F9AD4
:1042E00085E090E00E9491155E985C98ECEDF8E016
:1042F00089EE98E024912EBD00000DB407FEFDCF9D
:1043000031968E179F07B1F75C9A81E8809364001D
:10431000809165008160809365000E94760E0E9406
:10432000961587FF15C05C9885EA8EBD00000DB418
:1043300007FEFDCF5C9A2E982F982D9880916400EF
:1043400080628093640081E083BF889513BEFCCFB8
:104350000E94961582FF3CC02D980E949615847885
:104360008438B1F40E948F1588EC90E00E9491157A
:104370002F986FEF82E090E00E942E1B84EF91E077
:104380000E9491152F9A0E94961584788438D9F34B
:104390000E94961584718431B1F40E948F1588ECC7
:1043A00090E00E9491152E9860E082E090E00E94DB
:1043B0002E1B84EF91E00E9491152E9A0E94961573
:1043C00084718431D9F388EC90E00E949115C0CFBC
:1043D0000E948F1582E090E00E94CB1B882309F495
:1043E00054C00E94AF1581E090E00E94CB1B282FA3
:1043F0002470722E81FF11C021112E9801EF1FEF42
:1044000068E0E62EF12C78E5672E0E94961586FF6F
:104410003FC02E9A2F9A0E948F1582E390E00E944F
:1044200091150E9496158111F8CF81E280930D07B6
:104430000E94540E89EEC82E88E0D82E9CE1A92E49
:10444000B12C02EF402E06E0502E8FB7F894409129
:104450001E0250911F0260912002709121028FBFB5
:1044600080910E07F42FF81B8F2F90910F0799233F
:1044700009F4A4C0F093100710920F0780E090E0B9
:10448000892B19F30E940000DCCF0E94AA15ABCF44
:10449000772029F00430110511F42E9A2F9881E02D
:1044A0000E94670E980117FF04C022273327201BA4
:1044B000310B27703327C80117FD079653E09595F8
:1044C00087955A95E1F717FF05C00197A701421B91
:1044D000530B9A01BC017695762F662777956795E1
:1044E0006E557D4FB0E0A0E02701421A530A8E3F7F
:1044F0005FEF950709F43FC06A9E50016B9EB00CB8
:10450000112450E040E0F501E45DF74F5F014B01FD
:10451000F0E88F0E911C8F3F980791F0F501E40FA2
:10452000F51FE4916B01C40ED51EF0E01F01022EB1
:1045300001C0220C0A94EAF7F60134882328248A61
:104540002115310599F0F501E40FF51FE49164019F
:10455000C40ED51EF0E01F01042C02C03594279430
:104560000A94E2F7F60134882328248A4F5F5F4FCC
:104570004835510581F6019660587F4F1197D9F45F
:104580000E94760E8FE090E00E9491150F5F1F4F02
:104590000931110509F039CF772011F02F9A2D98A4
:1045A00080E991E00E9491150E948F1582E097E0CA
:1045B0000E94F61F32CFA1E0B0E099CF90910D0795
:1045C000F91748F48F5F891708F058CF81E083BF4F
:1045D000889513BE53CF81E080930F0740930E0759
:1045E0008091090790910A07019690930A0780939A
:1045F00009070E949E15E0910101E93098F4F0E06E
:10460000EC5FFC4D0C94822F152393241826A227CF
:104610004A28C4289B2C0D23102388E08093010195
:104620000E94441A0E94760E29CF0E94540E809157
:104630009C0242E45CE1811102C048E35CE120E0BD
:1046400068E370E088E790E00E945D150E94760EB6
:1046500020E041EA5BE160E080E70E94811B082FD7
:1046600020E04FE75BE160E180E70E94C21B082F7A
:1046700020E04DE55BE160E180E60E94C21B082F6F
:1046800020E04BE35BE160E080E60E94C21B082F64
:1046900020E049E15BE160E080E50E94C21B082F59
:1046A00020E047EF5AE160E080E40E94C21B082F3F
:1046B00020E045ED5AE160E080E30E94C21B082F34
:1046C00020E041EA5BE160E180E30E94C21B082F29
:1046D00020E04DE55BE160E280E30E94C21B082F11
:1046E00020E04BE35BE160E280E40E94C21B082F04
:1046F00020E041EA5BE160E380E40E94C21B81119B
:1047000002C00E94511B082F20E041EA5BE160E0FB
:1047100080E00E94C21B082F20E043EB5AE160E1D9
:1047200080E00E94C21B082F20E04DE55BE160E2C3
:1047300080E00E94C21B082F20E047EF5AE160E2B0
:1047400080E10E94C21B082F20E04FE75BE160E29E
:1047500080E20E94C21B082F20E045ED5AE160E193
:1047600080E20E94C21B082F20E041E95AE160E18B
:1047700080E30E94C21B082F20E049E15BE160E179
:1047800080E40E94C21B082F20E04BE35BE160E164
:1047900080E50E94C21B082F20E04DE55BE160E24E
:1047A00080E50E94C21B082F20E047EF5AE160E23B
:1047B00080E60E94C21B082F20E049E15BE160E235
:1047C00080E70E94C21B811102C00E94511B082F6A
:1047D00020E04FE65AE160E080E00E94C21B082F13
:1047E00020E04BE35BE160E080E10E94C21B082F08
:1047F00020E043EB5AE160E180E10E94C21B082FF8
:1048000020E04DE45AE160E280E10E94C21B082FE3
:1048100020E04DE55BE160E380E10E94C21B082FD0
:1048200020E047EF5AE160E380E20E94C21B082FBC
:1048300020E049E15BE160E380E30E94C21B082FB6
:1048400020E041E95AE160E380E40E94C21B082FA6
:1048500020E049E15BE160E380E50E94C21B082F94
:1048600020E04BE35BE160E380E60E94C21B811124
:1048700056C00E94511B811152C000E02EE14CE550
:1048800062E170E083E190E00E94D31504E110E062
:1048900041E063E170E0C8010E94B5150E5F1F4F53
:1048A00000371105A9F704E110E041E06EE270E085
:1048B000C8010E94B5150E5F1F4F00371105A9F7FB
:1048C00020E04FE459E165E170E087E190E00E946B
:1048D0005D150E94760E0E949E1588E00E94790E5A
:1048E00081111DC084E00E94790E882399F00E94F6
:1048F000421B80919C0242E45CE1811102C048E3CA
:104900005CE120E068E370E088E790E00E945D15DC
:104910000E94760E85E090E00E949115DCCF81E048
:10492000809301017FCE10922702109225021092EF
:10493000260210922202109223020E94540E20E0BE
:1049400045ED5AE16EEF7FEF8EEF9FEF0E945D1510
:1049500020E047EF5AE16EEF7FEF8EE090E00E949B
:104960005D1520E049E15BE16EEF7FEF8EE190E0C5
:104970000E945D1520E047EF5AE16EEF7FEF8EE277
:1049800090E00E945D1520E049E15BE16EEF7FEF72
:104990008EE390E00E945D1520E049E15BE16EEF5F
:1049A0007FEF8EE490E00E945D1520E047EF5AE132
:1049B0006EEF7FEF80E590E00E945D1520E049E119
:1049C0005BE16EEF7FEF84E590E00E945D1520E0F3
:1049D00049E15BE16EEF7FEF84E690E00E945D15B8
:1049E00020E04BE35BE16EEF7FEF82E790E00E9417
:1049F0005D1520E043EB5AE16EE070E08EEF9FEF33
:104A00000E945D1520E041EA5BE168E170E08EEF15
:104A10009FEF0E945D1520E043EB5AE161E170E0F9
:104A20008EEF9FEF0E945D1520E043EB5AE164E2B8
:104A300070E08EEF9FEF0E945D1520E043EB5AE19E
:104A40006EE070E082E790E00E945D1520E041EAB0
:104A50005BE168E170E082E790E00E945D1520E094
:104A600043EB5AE161E170E082E790E00E945D155E
:104A700020E043EB5AE164E270E082E790E00E94BC
:104A80005D1520E04DE55BE164E370E08EEF9FEFA4
:104A90000E945D1520E047EF5AE164E370E08EE08C
:104AA00090E00E945D1520E049E15BE164E370E085
:104AB0008EE190E00E945D1520E047EF5AE164E34B
:104AC00070E08EE290E00E945D1520E049E15BE13C
:104AD00064E370E08EE390E00E945D1520E049E120
:104AE0005BE164E370E08EE490E00E945D1520E0FD
:104AF00047EF5AE164E370E080E590E00E945D15C5
:104B000020E049E15BE164E370E084E590E00E942D
:104B10005D1520E049E15BE164E370E084E690E04C
:104B20000E945D1520E04FE75BE164E370E082E7FF
:104B300090E00E945D1580E80E94790E882339F08C
:104B400080918502882319F081508093850280E14D
:104B50000E94790E882339F080918502843018F400
:104B60008F5F8093850284E00E94790E81111092FC
:104B7000010188E00E94790E109185028823B9F026
:104B8000E12FF0E0EC5AFE4F808180932A021092D0
:104B90002B0290E00D960E94CB1B8823E9F182E066
:104BA0008093010181E0809300011092290212306C
:104BB000B8F510922802E091280241E0E11340E0AC
:104BC000F0E0EC5AFE4F608183E10E94CD1B8091A2
:104BD000280290E001962091850241E028171906ED
:104BE00009F040E08C5A9E4FFC0160818DE10E94EB
:104BF000CD1B8091280290E002962091850241E031
:104C00002817190609F040E08C5A9E4FFC0160817C
:104C100087E20E94CD1B06CD83E080930101C7CFC0
:104C200082E0143010F48FEF810F80932802C3CFFD
:104C30001092270210922502109226021092220250
:104C4000109223020E94540E20E045ED5AE16EEFCF
:104C50007FEF8EEF9FEF0E945D1520E047EF5AE156
:104C60006EEF7FEF8EE090E00E945D1520E049E15D
:104C70005BE16EEF7FEF8EE190E00E945D1520E03A
:104C800047EF5AE16EEF7FEF8EE290E00E945D15F4
:104C900020E049E15BE16EEF7FEF8EE390E00E9460
:104CA0005D1520E049E15BE16EEF7FEF8EE490E07F
:104CB0000E945D1520E047EF5AE16EEF7FEF80E53F
:104CC00090E00E945D1520E049E15BE16EEF7FEF2F
:104CD00084E590E00E945D1520E049E15BE16EEF24
:104CE0007FEF84E690E00E945D1520E04BE35BE1FE
:104CF0006EEF7FEF82E790E00E945D1520E043EBCE
:104D00005AE16EE070E08EEF9FEF0E945D1520E0AB
:104D100041EA5BE168E170E08EEF9FEF0E945D1574
:104D200020E043EB5AE161E170E08EEF9FEF0E94DB
:104D30005D1520E043EB5AE164E270E08EEF9FEFF7
:104D40000E945D1520E043EB5AE16EE070E082E7DF
:104D500090E00E945D1520E041EA5BE168E170E0CF
:104D600082E790E00E945D1520E043EB5AE161E1AB
:104D700070E082E790E00E945D1520E043EB5AE18D
:104D800064E270E082E790E00E945D1520E04DE56E
:104D90005BE164E370E08EEF9FEF0E945D1520E021
:104DA00047EF5AE164E370E08EE090E00E945D1509
:104DB00020E049E15BE164E370E08EE190E00E9475
:104DC0005D1520E047EF5AE164E370E08EE290E089
:104DD0000E945D1520E049E15BE164E370E08EE351
:104DE00090E00E945D1520E049E15BE164E370E042
:104DF0008EE490E00E945D1520E047EF5AE164E305
:104E000070E080E590E00E945D1520E049E15BE103
:104E100064E370E084E590E00E945D1520E049E1E4
:104E20005BE164E370E084E690E00E945D1520E0C1
:104E30004FE75BE164E370E082E790E00E945D157C
:104E400080E80E94790E882339F080912902882316
:104E500019F081508093290280E10E94790E882305
:104E600039F080912902811103C081E080932902E9
:104E700084E00E94790E882319F081E0809301017B
:104E800088E00E94790E882321F1809129028130E7
:104E900049F410922B0280912A0290E060E00D9676
:104EA0000E942E1B00912902011110C010912A02AC
:104EB000812F90E00D960E94CB1B1550153008F401
:104EC0000EE1081301C0815080932B0283E0809390
:104ED000010111E080912902811110E0809100010F
:104EE0006FEB71E0813011F060ED71E0CE01019661
:104EF0000E94E51A412FBE016F5F7F4F87E10E943C
:104F00000F1689819A81009711F00E94243011E0D8
:104F100080912902813009F010E061EE71E0CE014C
:104F200001960E94E51A412FBE016F5F7F4F83E219
:104F30000E940F1689819A81009709F473CB0E9411
:104F4000243070CB0E94540E20912B0280912A02B3
:104F5000682F70E0482F469580FF05C0AB014F5F7A
:104F60005F4F55954795849F402D112480932D02C6
:104F700080932C0265507109660F771F660F771FAB
:104F8000FB01E55CF64EE491E0932F02FB01E45C4B
:104F9000F64EE491E0933002FB01E35CF64EE491BF
:104FA000E0933202FB01E25CF64EE491E0933302BF
:104FB000249F90011124420F532F511DE0E0F12C4A
:104FC00090E0B9E0EB2E241735070CF061C0873074
:104FD00009F456C008F042C0853009F448C0863054
:104FE00009F44AC00F2D10E0E09ED001E19EB00D03
:104FF0001124A65DBD4FA90FB11D1A961C921A97D8
:10500000891768F06E2F70E0F4E075956795FA9552
:10501000E1F76115710519F0606F1A966C93E09EC7
:10502000B001E19E700D1124665D7D4FF1E0F90F36
:10503000DB01AF0FB11D1A961C921A978F1730F033
:105040006E2F6F7019F0606F1A966C939E5F9817B1
:1050500010F0F39490E02F5F3F4FB5CF8830A1F070
:10506000893009F0BFCFF901E15FF64F03C0F901C4
:10507000E758F84EE491B6CFF901E35AFA4EFACF69
:10508000F901EB5EFD4EF6CFF901EB5AF14FF2CF8D
:1050900084E046CC80E20E94790E882339F080912A
:1050A0002202882319F081508093220280E40E941A
:1050B000790E882361F08091220220912C022150E8
:1050C000330B821713061CF48F5F8093220280E853
:1050D0000E94790E882339F080912302882319F0E9
:1050E00081508093230280E10E94790E882361F031
:1050F0008091230220912D022150330B8217130639
:105100001CF48F5F8093230288E00E94790E88232D
:1051100009F4E4C59090230280902202082D10E04B
:10512000E92CF12CF80129E0929EE00DF11D1124EB
:10513000E65DFD4F8285982F907F903F09F0CEC5A8
:105140008F7070912D02A0912C024AE252E060E033
:10515000761709F4E5C530E020E02A1778F4FA0163
:10516000E20FF31F9285E92FEF708E1304C0907F3A
:10517000903F09F09BC52F5F3F4FEFCF6F5F475FB9
:105180005F4FE6CF82E0B4C580E20E94790E8823AB
:1051900009F48EC030902302E32CF12C20902202DF
:1051A000622C712C430141E0841A91084091250240
:1051B00050912602609127028701940182E00E94AB
:1051C0008C19882309F474C089E08E9DF0018F9DAD
:1051D000F00D1124E65DFD4FE60DF71DE285E29529
:1051E000EF70E150EF3028F5F0E0E750F74D0C9408
:1051F000822F08299D29D229B1299D29B129082961
:10520000B1299D29D2290829D22919291929F12939
:10521000632D8FEF820D0E94F51929E02E9DC001AC
:105220002F9D900D1124865D9D4F680E791EF30110
:105230001286809125028815190479F4809126023E
:1052400038120BC0809127020E94C7170E94C11715
:1052500084E0809301010E94F01780912302E09185
:105260002202E150F9E08F9FC0011124865D9D4F1D
:10527000E80FF92FF11D8285982F907F903F99F4C8
:105280008F709091270289130EC00E94C11784E08D
:10529000809301010E94E8170E94A417882319F047
:1052A00086E0809301018091220281508093220246
:1052B00080E40E94790E882309F4EEC03090230226
:1052C000E32CF12C20902202622C712C43012FEF51
:1052D000821A920A4091250250912602609127027B
:1052E0008701940183E00E948C19882309F4D4C0BB
:1052F00089E08E9DF0018F9DF00D1124E65DFD4F3C
:10530000E60DF71DE285E295EF70E150EF3008F011
:1053100084C0F0E0E257F64D0C94822F912AFC29CC
:10532000C62AA52AFC29A52A912AA52AFC29C62A2B
:10533000912AC62A0D2A0D2AE52A89E08E9DF001C0
:105340008F9DF00D1124E65DFD4FE80DF11D828566
:10535000807F803F09F46DCF809127028062828731
:1053600068CF2091270289E08E9DF0018F9DF00D7E
:105370001124E65DFD4FE80DF11D8285807F803FA1
:1053800019F0822F8062828739E03E9DC0013F9DE7
:10539000900D1124865D9D4F680E791E2069F301E2
:1053A000228747CF2091270289E08E9DF0018F9DB3
:1053B000F00D1124E65DFD4FE80DF11D8285807F23
:1053C000803F19F0822F8062828739E03E9DC001C4
:1053D0003F9D900D1124865D9D4F680E791E2065BE
:1053E000DECF89E08E9DF0018F9DF00D1124E65DEA
:1053F000FD4FE80DF11DB0CF632D81E0820D0E94BD
:10540000F51929E02E9DC0012F9D900D1124865D78
:105410009D4F680E791EF301128680912502881532
:10542000190479F48091260238120BC0809127026A
:105430000E94C7170E94C11784E0809301010E9457
:10544000F01780912302E0912202EF5FF9E08F9F35
:10545000C0011124865D9D4FE80FF92FF11D828553
:10546000982F907F903F99F48F7090912702891325
:105470000EC00E94C11784E0809301010E94E817CA
:105480000E94A417882319F086E08093010180917F
:1054900022028F5F8093220280E80E94790E882387
:1054A00009F4EEC030902302632C712C430121E0FB
:1054B000821A910820902202E22CF12C40912502C0
:1054C00050912602609127028401970180E00E949A
:1054D0008C19882309F4D4C089E0869DF001879D4A
:1054E000F00D1124E65DFD4FEE0DFF1DE285E29506
:1054F000EF70E150EF3008F084C0F0E0EE57F54D6A
:105500000C94822F972BB62BF02A852BB62B852B4C
:10551000972B852BB62BF02A972BF02A012B012BEA
:10552000D32B89E08E9DF0018F9DF00D1124E65D57
:10553000FD4FE80DF11D8285807F803F09F46DCF1E
:10554000809127028061828768CF2091270289E0BD
:105550008E9DF0018F9DF00D1124E65DFD4FE80D4D
:10556000F11D8285807F803F19F0822F80618287C4
:1055700039E03E9DC0013F9D900D1124865D9D4FF9
:10558000680E791E206BF301228747CF20912702F6
:1055900089E08E9DF0018F9DF00D1124E65DFD4F99
:1055A000E80DF11D8285807F803F19F0822F806198
:1055B000828739E03E9DC0013F9D900D1124865D9C
:1055C0009D4F680E791E2067DECF89E08E9DF00129
:1055D0008F9DF00D1124E65DFD4FE80DF11DB0CF5C
:1055E0006FEF630D822D0E94F51929E0269DC00101
:1055F000279D900D1124865D9D4FE80EF91EF70141
:10560000128680912502281210C0809126028815EA
:10561000190459F4809127020E94C7170E94C117EC
:1056200084E0809301010E94F01780912302815051
:105630002091220239E0839FC0011124865D9D4F95
:10564000820F911DFC018285982F907F903F99F4E5
:105650008F709091270289130EC00E94C11784E0B9
:10566000809301010E94E8170E94A417882319F073
:1056700086E0809301018091230281508093230270
:1056800080E10E94790E882309F4E6C0309023025D
:10569000632C712C4301FFEF8F1A9F0A2090220286
:1056A000E22CF12C409125025091260260912702B4
:1056B0008401970181E00E948C19882309F4CCC0F1
:1056C00089E0869DF001879DF00D1124E65DFD4F78
:1056D000EE0DFF1DE285E295EF70E150EF3008F02E
:1056E0007CC0F0E0EA58F44D0C94822F562C752CB7
:1056F000442CDC2B752CDC2B562CDC2B752C442CF1
:10570000562C442CED2BED2B922CF70129E0829E98
:10571000E00DF11D1124E65DFD4F8285807F803F05
:1057200009F46FCF80912702806482876ACF20912D
:105730002702F70139E0839EE00DF11D1124E65D9B
:10574000FD4F9285907F903F19F0822F8064828771
:1057500039E0369DC001379D900D1124865D9D4F27
:10576000E80EF91E2066F70122874BCF2091270211
:10577000F70139E0839EE00DF11D1124E65DFD4F38
:105780009285907F903F19F0822F8064828739E064
:10579000369DC001379D900D1124865D9D4FE80E0A
:1057A000F91E2068E0CFF70129E0829EE00DF11D8F
:1057B0001124E65DFD4FB6CF61E0630D822D0E949E
:1057C000F51929E0269DC001279D900D1124865DC5
:1057D0009D4FE80EF91EF7011286809125022812CE
:1057E00010C0809126028815190459F4809127026F
:1057F0000E94C7170E94C11784E0809301010E9494
:10580000F017809123028F5F2091220239E0839F5D
:10581000C0011124865D9D4F820F911DFC01828580
:10582000982F907F903F99F48F7090912702891361
:105830000EC00E94C11784E0809301010E94E81706
:105840000E94A417882319F086E0809301018091BB
:1058500023028F5F8093230284E00E94790E8823C5
:1058600049F0809127020E94C7170E94C11784E067
:10587000809301010E942E1A482F6091300225EF7B
:105880002403C001112442C2F70129E0829EE00DE9
:10589000F11D1124E65DFD4F8285807F803F09F474
:1058A0009CCF809127028063828797CF2091270227
:1058B000F70139E0839EE00DF11D1124E65DFD4FF7
:1058C0009285907F903F19F0822F8063828739E024
:1058D000369DC001379D900D1124865D9D4FE80EC9
:1058E000F91E206AF701228778CF20912702F7015D
:1058F00039E0839EE00DF11D1124E65DFD4F928598
:10590000907F903F19F0822F8063828739E0369D27
:10591000C001379D900D1124865D9D4FE80EF91E44
:10592000206CE0CFF70129E0829EE00DF11D1124EB
:10593000E65DFD4FB6CF88EE93E00E9491150E9480
:10594000540E20E041EA5BE170E060E080E790E027
:105950000E945D1520E04FE75BE160E170E080E7C9
:1059600090E00E945D1520E04DE55BE160E170E0B4
:1059700080E690E00E945D1520E04BE35BE170E083
:1059800060E080E690E00E945D1520E049E15BE187
:1059900070E060E080E590E00E945D1520E047EF58
:1059A0005AE170E060E080E490E00E945D1520E044
:1059B00045ED5AE170E060E080E390E00E945D1503
:1059C00020E041EA5BE160E170E080E390E00E946A
:1059D0005D1520E04DE55BE160E270E080E390E082
:1059E0000E945D1520E04BE35BE160E270E080E443
:1059F00090E00E945D1520E041EA5BE160E370E029
:105A000080E490E00E945D1520E041EA5BE170E0F7
:105A100060E090E080E00E945D1520E043EB5AE1F9
:105A200060E170E090E080E00E945D1520E04DE5CF
:105A30005BE160E270E090E080E00E945D1520E0B4
:105A400047EF5AE160E270E080E190E00E945D156E
:105A500020E04FE75BE160E270E080E290E00E94CE
:105A60005D1520E045ED5AE160E170E080E290E0F4
:105A70000E945D1520E041E95AE160E170E080E3B9
:105A800090E00E945D1520E049E15BE160E170E09B
:105A900080E490E00E945D1520E04BE35BE160E173
:105AA00070E080E590E00E945D1520E04DE55BE14F
:105AB00060E270E080E590E00E945D1520E047EF35
:105AC0005AE160E270E080E690E00E945D1520E01F
:105AD00049E15BE160E270E080E790E00E945D15E3
